:020000040800F2
:100000005004002005010008D5160008D715000887
:10001000D116000843050008411A0008000000003E
:100020000000000000000000000000001917000898
:100030007105000800000000D71600081B17000813
:100040001F0100081F0100081F0100081F01000810
:100050001F0100081F0100081F0100081F01000800
:100060001F0100081F0100081F0100081F010008F0
:100070001F0100081F0100081F0100081F010008E0
:100080001F0100081F0100081F0100081F010008D0
:100090001F0100081F0100081F0100081F010008C0
:1000A0001F0100081F0100081F0100081F010008B0
:1000B0001F0100081F0100081F0100081F010008A0
:1000C0001F0100081F0100081F0100081F01000890
:1000D0001F010008311A00081F0100081F01000855
:1000E0001F0100081F0100081F010008DFF810D0E1
:1000F00000F006FA00480047611F0008AFF30080D7
:10010000500400200648804706480047FEE7FEE707
:10011000FEE7FEE7FEE7FEE7FEE7FEE7FEE7FEE7B7
:1001200073170008ED000008202A04DB203A21FAAA
:1001300002F00021704721FA02F3D040C2F1200200
:100140009140084319467047D2B201E000F8012BF4
:10015000491EFBD270470022F6E710B513460A4647
:1001600004461946FFF7F0FF204610BDF0B480EAC0
:100170000102D40F4200B2EB410F02D20246084600
:1001800011464A0042D0C30DDDB2C1F3C752AD1AC9
:10019000202D35DAC1F3160141F4000204B15242B8
:1001A000C5F1200602FA06F12A411044B3EBD05FF4
:1001B00023D0C4B1012DA0EBC35009DCF0BC4FF03B
:1001C000004202EAC352DBB200F5000000F00DB9B4
:1001D000400000F1807000EBC350A0F1807040EA55
:1001E000D170490009E0490841EAC071A0EBC35051
:1001F00000F50000400800EBC350F0BC00F0ECB884
:100200006142012202EB4101001BF6E7F0BC70479E
:1002100081F00041AAE780F00040A7E72DE9FE4FFA
:1002200081EA030404F0004421F0004100944FF0FF
:10023000000B23F0004350EA01045ED052EA0304AD
:100240005BD0C3F30A54C1F30A552C44A4F2F3342F
:100250000194A0FB0254C1F3130141F48011C3F3D4
:10026000130343F4801301FB024400FB034E840A92
:10027000970A44EA815447EA8357A4FB076802952A
:100280008D0A05FB07854FEA932C04FB0C542705C8
:10029000029D4FEA065847EA1637B5EB08056EEBA4
:1002A000070C870E920E47EA811742EA8312A7FBDA
:1002B0000201B6EB0B0164EB00042B0D43EA0C3397
:1002C0005E1844EB1C50DA465146E7FB0201C5F3C9
:1002D00013044FEA0B3343EA14534FEA0432019CF0
:1002E00043EA0603A4F10C040294009CCDE900B497
:1002F00000F0B8F803B0BDE8F08F00200146F9E740
:100300000EB5C10F80EAE0700844CA07002140F230
:1003100033438DE80E000A460B4600F0A3F803B005
:1003200000BD00F0004230F000400AD0C10D01F5E0
:100330006071C0F3160042EA0151C2084007114340
:10034000704700200146704730B5041E71F100046B
:1003500004DB4FF00044404264EB0101141E73F1D2
:10036000000405DB1C464FF00043524263EB0403DC
:10037000994208BF904230BD01F0004330B421F0F3
:10038000004150EA010206D00A0DA2F56072C1F3E5
:100390001301002A02DC30BC00207047440F44EAFD
:1003A000C104C100E01830BC00EBC25000F014B82A
:1003B000002801DBC0F10040002901DBC1F1004150
:1003C00081427047002801DBC0F10040002901DBB9
:1003D000C1F10041884270470029A8BF7047401C06
:1003E000490008BF20F00100704710B4B0FA80FC4B
:1003F00000FA0CF050EA010404BF10BC704749B188
:10040000CCF1200421FA04F411FA0CF118BF0121F7
:1004100021430843A3EB0C01CB1D4FEA00614FEAD7
:10042000102042BF002010BC704700EBC3501044A6
:100430000029A4BF10BC7047401C490008BF20F031
:10044000010010BC704710B5141E73F1000408DAE7
:10045000401C41F1000192185B411A4301D120F088
:10046000010010BD2DE9F04D92469B4611B1B1FA45
:1004700081F202E0B0FA80F22032904600F052F8A9
:1004800004460F4640EA0A0041EA0B0153465A4629
:10049000084313D0114653EA010019D0C8F14002B5
:1004A0005046FFF741FE05460E4650465946424625
:1004B00000F038F8084305D0012004E02046394612
:1004C000BDE8F08D0020054346EAE0762C43374333
:1004D0000A986305E40AA0EB08000022FD0A44EA3A
:1004E00047540A3002D500200146E9E701051019FA
:1004F0006941DDE9084500196941BDE8F04DA2E711
:10050000064C074D06E0E06840F0010394E8070060
:1005100098471034AC42F6D3FFF7ECFD8423000873
:10052000A4230008202A04DB203A00FA02F100206C
:1005300070479140C2F1200320FA03F31943904021
:10054000704700BFFEE7000030B5024600200023E0
:1005500009E012F8014B6040C4B2044D35F8144074
:1005600084EA20205B1C8B42F3DB30BD6C21000849
:100570007047704770B50446002594F821000228A2
:1005800003D00420A063012548E02068006820F023
:100590000E00216808602068006820F001002168D2
:1005A00008601F492068884201D1012026E01C49CB
:1005B00014312068884201D110201FE018492831E9
:1005C0002068884201D1801518E015493C31206827
:1005D000884201D1801411E01149503120688842CD
:1005E00002D14FF4803009E00D496431206888421F
:1005F00002D14FF4801001E04FF0807008490839B3
:100600004860012084F8210000BF002084F8200009
:1006100000BF606B10B12046616B8847284670BDF3
:100620000800024070B5044600F0A6F906462546CB
:10063000681C10B104480078054400BF00F09CF924
:10064000801BA842FAD370BD080000202DE9F847AE
:100650000346002294466EE14FF0010808FA02F4C6
:10066000D1F8008008EA0400A0427DD1DFF8DCA2C6
:10067000D1F80480A8EB0A09D0453AD014DCB8F1CF
:10068000030F50D009DCB8F1000F31D0B8F1010FE1
:100690001CD0B8F1020F49D120E0B8F1110F18D0E9
:1006A000B8F1120F42D11EE0B9F5881F25D006DC43
:1006B000B9F5803F20D0B9F5801F37D11AE0B9F5E0
:1006C000001F18D0B9F5041F30D117E0D1F80CC0C5
:1006D0002DE0D1F80C8008F1040C28E0D1F80C8052
:1006E00008F1080C23E0D1F80C8008F10C0C1EE096
:1006F00000BF00BF00BF00BF00BF00BFD1F808802F
:10070000B8F1000F02D14FF0040C0BE0D1F80880D3
:10071000B8F1010F03D14FF0080C1C6102E04FF05B
:10072000080C5C6103E04FF0000C00E000BF00BF6C
:10073000FF2801D8984601E003F104084646FF2847
:1007400002D84FEA820803E0A2F108084FEA8808BD
:100750004746D6F800804FF00F0909FA07F928EA52
:1007600009080CFA07F900E088E048EA0908C6F829
:100770000080D1F8048008F08058B8F1805F7DD106
:1007800000BFDFF8CC81D8F8188048F00108DFF806
:10079000C091C9F81880C846D8F8188008F0010838
:1007A000CDF8008000BF00BF4FEAB9384FEA920988
:1007B00058F829504FEA82784FEA18794FF00F081D
:1007C00008FA09F825EA0805DFF88881434502D1CF
:1007D0004FF0000816E0DFF88081434502D14FF06A
:1007E00001080FE0DFF87481434502D14FF00208A1
:1007F00008E0DFF86C81434502D14FF0030801E0C7
:100800004FF004084FEA82794FEA197908FA09F89B
:1008100048EA0505DFF84C814FEA920948F829506B
:10082000D1F8048008F48038B8F5803F0AD1DFF8A9
:100830003881D8F8008048EA0008DFF82C91C9F820
:10084000008009E0DFF82081D8F8008028EA00085D
:10085000DFF81491C9F80080D1F8048008F400385A
:10086000B8F5003F10D1DFF8008108F10408D8F88E
:10087000008048EA0008DFF8F09000E05AE009F153
:100880000409C9F800800DE0DFF8DC8008F10408F5
:10089000D8F8008028EA0008DFF8CC9009F10409B4
:1008A000C9F80080D1F8048008F48018B8F5801FDA
:1008B0000ED1DFF8B48008F10808D8F8008048EAC3
:1008C0000008DFF8A49009F10809C9F800800DE0DC
:1008D000DFF8948008F10808D8F8008028EA0008BA
:1008E000DFF8849009F10809C9F80080D1F8048084
:1008F00008F40018B8F5001F0ED1DFF86C8008F17D
:100900000C08D8F8008048EA0008DFF85C9009F18C
:100910000C09C9F800800DE0DFF84C8008F10C08E4
:10092000D8F8008028EA0008DFF83C9009F10C09AB
:10093000C9F80080521CD1F8008028FA02F8B8F1FA
:10094000000F7FF489AEBDE8F887000000001110A9
:100950000010024000080140000C0140001001405E
:100960000014014008000140000401400AB1016187
:1009700001E00B0403617047014800687047000004
:100980000000002003480068034909780844014931
:1009900008607047000000200800002010B50848DB
:1009A000006840F0100006490860032000F0A8F835
:1009B000002000F007F800F02BF8002010BD000028
:1009C0000020024070B504460E4800784FF47A715A
:1009D000B1FBF0F00C490968B1FBF0F5284600F0D6
:1009E0000BFC08B1012070BD102C07D2002221465B
:1009F000501E00F047F80548046001E00120F2E7CE
:100A00000020F0E7080000200C0000200400002077
:100A100008B500BF1148806940F001000F498861A6
:100A20000846806900F00100009000BF00BF00BFD1
:100A30000846C06940F08050C8610846C06900F0AF
:100A40008050009000BF00BF00BF0549486820F0FB
:100A5000E06040F00070486000BF08BD0010024038
:100A60000000014001460846002809DB00F01F0392
:100A700001229A4043099B0003F1E023C3F80021BF
:100A800000BF70472DE9F05F80460D4616460027EF
:100A900001F0D8F9074639462A46334601F00700E7
:100AA000C0F1070ABAF1040F02D94FF0040A01E0BD
:100AB000C0F1070AD14600F1040ABAF1070F02D2C9
:100AC0004FF0000A01E0A0F1030AD4464FF0010AFA
:100AD0000AFA09FAAAF1010A0AEA020A0AFA0CFA5F
:100AE0004FF0010B0BFA0CFBABF1010B0BEA030B04
:100AF0004AEA0B042146404601F0ACF9BDE8F09FFC
:100B000000BF00F00702064B19684FF6FF031940BB
:100B1000044B0B4343EA0221014B196000BF7047AD
:100B20000CED00E00000FA0570B504460D460CB966
:100B3000012070BD5A48006800F00700A8420ED29C
:100B40005748006820F007002843554908600846C8
:100B5000006800F00700A84201D00120E9E72078F2
:100B600000F0020002281DD1207800F004000428C3
:100B700005D14C48406840F4E0604A49486020781C
:100B800000F00800082805D14648406840F460504D
:100B9000444948604348406820F0F000A168084399
:100BA00040494860207800F0010078B3606801286F
:100BB00006D13C48006800F4003090B90120B8E745
:100BC0006068022806D13748006800F0007040B91C
:100BD0000120AEE73348006800F0020008B90120A8
:100BE000A7E73048406820F00300616808432D49BA
:100BF0004860FFF7C1FE064609E0FFF7BDFE801B17
:100C000041F28831884202D9032092E707E0254863
:100C1000406800F00C006168B0EB810FEDD1204816
:100C2000006800F00700A8420ED91D48006820F0B7
:100C3000070028431A4908600846006800F00700CA
:100C4000A84201D0012074E7207800F004000428B5
:100C500007D11448406820F4E060E1680843114976
:100C60004860207800F00800082808D10D48406846
:100C700020F46050216940EAC1000A49486000F050
:100C80003FF808494968C1F30311074A515CC8405D
:100C90000649086006480068FFF794FE002048E710
:100CA00000200240001002406C2300080C000020CD
:100CB0000400002001480068704700000C0000207C
:100CC00000B5FFF7F7FF04494968C1F30221034A61
:100CD000515CC84000BD0000001002407C230008A9
:100CE00000B5FFF7E7FF04494968C1F3C221034A91
:100CF000515CC84000BD0000001002407C23000889
:100D0000F0B585B00FF26C0C9CE8E01001A8A0E8EB
:100D1000E0101CA52D68009500210022002300246E
:100D20000020194D696801F00C05F5B1042D02D0C1
:100D3000082D19D101E0154819E001ADC1F3834632
:100D4000AC5D01F4803555B10F4D6D68C5F340457C
:100D50001DF805200D4D6543B5FBF2F302E00C4D87
:100D600004FB05F3184602E000BF084800BF00BFBF
:100D700005B0F0BD02030405060708090A0B0C0DB7
:100D80000E0F1010010200000010024000127A0045
:100D900000093D00F8B504460CB90120F8BD2078E3
:100DA00000F00100002878D0F848406800F00C00FE
:100DB00004280CD0F548406800F00C00082811D138
:100DC000F248406800F48030B0F5803F0AD1EF4827
:100DD000006800F4003000285FD0606800285CD113
:100DE0000120DBE700BF6068B0F5803F06D1E7482F
:100DF000006840F48030E549086028E0606858B930
:100E0000E248006820F48030E04908600846006845
:100E100020F4802008601AE06068B0F5A02F0BD1A4
:100E2000DA48006840F48020D84908600846006825
:100E300040F4803008600AE0D448006820F4803034
:100E4000D24908600846006820F48020086000BF8E
:100E5000606888B1FFF790FD054606E0FFF78CFD5E
:100E6000401B642801D9032098E7C848006800F4B3
:100E700000300028F2D010E0FFF77EFD054606E0C6
:100E8000FFF77AFD401B642801D9032086E7BF489D
:100E9000006800F400300028F2D1207800F0020051
:100EA000022857D1B948406800F00C0050B1B7484B
:100EB000406800F00C00082818D1B448406800F4DD
:100EC000803098B9B148006800F0020020B1206974
:100ED000012801D0012061E7AC48006820F0F8004B
:100EE000616940EAC100A949086033E02069E8B1BE
:100EF0000120A7490860FFF73FFD054606E0FFF720
:100F00003BFD401B022801D9032047E79F480068AA
:100F100000F002000028F2D09C48006820F0F800A1
:100F2000616940EAC1009949086013E000209849CE
:100F30000860FFF721FD054606E0FFF71DFD401B99
:100F4000022801D9032029E79048006800F0020038
:100F50000028F2D1207800F0080008282DD1A069DF
:100F6000B8B101208B490860FFF706FD054606E091
:100F7000FFF702FD401B022801D903200EE783483A
:100F8000406A00F002000028F2D0012000F0A4FB2B
:100F900013E000207F490860FFF7EEFC054606E0FD
:100FA000FFF7EAFC401B022801D90320F6E6774848
:100FB000406A00F002000028F2D1207800F004001E
:100FC000042873D100277148C06900F0805070B9BF
:100FD00000BF6E48C06940F080506C49C861084647
:100FE000C06900F08050009000BF00BF01276A4830
:100FF000006800F48070B0B96748006840F4807001
:1010000065490860FFF7B8FC054606E0FFF7B4FC49
:10101000401B642801D90320C0E65F48006800F443
:1010200080700028F2D000BFE068012806D1574840
:10103000006A40F001005549086227E0E06858B9AD
:101040005248006A20F00100504908620846006AD0
:1010500020F00400086219E0E06805280BD14B4835
:10106000006A40F00400494908620846006A40F0FE
:10107000010008620AE04548006A20F00100434987
:1010800008620846006A20F00400086200BFE068B9
:10109000A0B1FFF771FC054609E0FFF76DFC401BAE
:1010A00041F28831884202D9032077E622E03748AE
:1010B000006A00F002000028EFD012E0FFF75CFCAD
:1010C000054608E0FFF758FC401B41F28831884292
:1010D00001D9032062E62D48006A00F002000028D2
:1010E000F0D1012F05D12948C06920F0805027494F
:1010F000C86100BFE069C8B32448406800F00C0034
:10110000082860D0E069022848D1002020490866FC
:10111000FFF732FC054606E0FFF72EFC401B0228D5
:1011200001D903203AE61948006800F00070002851
:10113000F2D1206AB0F5803F07D11448406820F40E
:101140000030A168084311494860D4E90801084308
:101150000E49496821F4741108430C494860012084
:101160000B490866FFF708FC054607E03DE0FFF77E
:1011700003FC401B022801D903200FE60348006846
:1011800000F000700028F2D02FE0000000100240B4
:101190000000424280044242007000400020144996
:1011A0000866FFF7E9FB054606E0FFF7E5FB401B95
:1011B000022801D90320F1E50E48006800F0007014
:1011C0000028F2D111E0E069012800D1E6E50948E4
:1011D000466806F48031206A814204D106F4701119
:1011E000606A814201D00120D8E50020D6E50000E8
:1011F000000042420010024070B504462546681EB9
:10120000B0F1807F01D301200FE0681E4FF0E02194
:1012100048610F214FF0FF3000F01CFE00204FF01E
:10122000E021886107200861002070BD7047000040
:101230002DE9F0470446206805682068C6682068E4
:1012400047694FF00008C14605F00F08B8F1000FDC
:101250000AD105F0200038B106F0200020B1204668
:1012600000F0B2FABDE8F087B8F1000F71D007F0D6
:10127000010018B906F4907000286AD005F001004A
:1012800030B106F4807018B1E06B40F00100E0630B
:1012900005F0040030B107F0010018B1E06B40F038
:1012A0000200E06305F0020030B107F0010018B160
:1012B000E06B40F00400E06305F0080048B106F080
:1012C000200010B907F0010018B1E06B40F00800F1
:1012D000E063E06B68B305F0200028B106F0200061
:1012E00010B1204600F070FA20684069C0F3801900
:1012F000E06B00F0080010B9B9F1000F22D02046D1
:1013000000F042FA2068406900F04000B0B1206867
:10131000406920F0400021684861606B50B1184876
:10132000616B4863606BFFF725F910B1606B416B2F
:1013300088470CE02046FFF779FF08E02046FFF7DA
:1013400075FF04E02046FFF771FF0020E06389E7A6
:10135000FFE705F0800030B106F0800018B12046AC
:1013600000F000FB7EE705F0400030B106F04000E1
:1013700018B1204600F018FA74E700BF72E70000C9
:101380007517000810B504460CB9012010BDA069FE
:1013900000B100E000BF94F8390028B9002084F8BB
:1013A0003800204600F028F8242084F8390020680E
:1013B000C06820F400502168C860204600F054FA4C
:1013C0002068006920F49040216808612068406925
:1013D00020F02A00216848612068C06840F400506D
:1013E0002168C8600020E063202084F8390084F878
:1013F0003A000020CAE7000010B586B0044600207D
:1014000002900390049005901E492068884236D1CE
:1014100000BF1D48806940F480401B498861084630
:10142000806900F48040019000BF00BF00BF084603
:10143000806940F0040088610846806900F004007B
:10144000019000BF00BF48150290022003900320C6
:10145000059002A90D48FFF7F9F84FF4806002905B
:1014600000200390049002A90848FFF7EFF800223B
:1014700011462520FFF706FB2520FFF7F3FA06B0FB
:1014800010BD00000038014000100240000801407B
:1014900010B5034693F83A0020282FD101B10AB9BC
:1014A000012010BD00BF93F83800012801D10220AF
:1014B000F7E7012083F8380000BF99629A85DA8542
:1014C0000020D863222083F83A0000BF002083F870
:1014D000380000BF1868C06840F480701C68E06085
:1014E0001868406940F001001C6860611868C068B5
:1014F00040F020001C68E0600020D2E70220D0E726
:1015000070472DE9F84F04460E46174699464FF0AE
:10151000000A94F8390020285AD106B117B90120E1
:10152000BDE8F88F00BF94F83800012801D10220EF
:10153000F6E7012084F8380000BF0020E063212096
:1015400084F83900FFF718FA8246A784E784A06878
:10155000B0F5805F04D1206910B90025B04602E0E3
:1015600035464FF0000800BF002084F8380000BF67
:101570001BE05346002280212046CDF8009000F069
:1015800021FA08B10320CBE745B9B8F80000C0F351
:1015900008002168486008F1020803E02878216803
:1015A00048606D1CE08C401EE084E08C0028E0D197
:1015B0005346002240212046CDF8009000F002FA68
:1015C00008B10320ACE7202084F839000020A7E709
:1015D0000220A5E7704700BFFEE7000000B585B018
:1015E0000020019002900390049000BF274880697A
:1015F00040F01000254988610846806900F010001D
:10160000009000BF00BF00BF0846806940F008009E
:1016100088610846806900F00800009000BF00BFA4
:1016200000BF0846806940F0040088610846806970
:1016300000F00400009000BF00BF00224FF40051F2
:101640001348FFF793F900224FF400411148FFF7C8
:101650008DF94FF40050019001200290002003907A
:101660000220049001A90A48FEF7F0FF4FF4004061
:10167000019001200290002003900220049001A913
:101680000448FEF7E3FF05B000BD00000010024073
:1016900000100140000C014010B50A480A490860DA
:1016A0000A484860002108488160C16001610C213E
:1016B000416100218161C161FFF764FE08B1FEF75D
:1016C00058FF10BD003801401000002090D00300EA
:1016D00000BFFEE77047704708B508490968C908A8
:1016E0004FF47A72B1FBF2F14143009100BF00BFA9
:1016F00000994A1E00920029F9D108BD0C00002073
:1017000070B504460D462A4621460248FFF7C0FE42
:10171000002070BD10000020704710B5FFF732F9AF
:1017200010BD00B58FB0282105A8FEF714FD1421C7
:101730006846FEF710FD0220059001200990102058
:101740000A9000200C9005A8FFF724FB08B1FEF7D3
:1017500010FF0F2000900020019002900390049051
:1017600000216846FFF7E0F908B1FEF702FF0FB06D
:1017700000BD704770B505466C6A0020E085E084C6
:101780002046FFF753FD70BD0168C96821F49071D0
:101790000268D1600168496921F001010268516164
:1017A000202180F83A10704710B504462068C068C0
:1017B00020F040002168C860202084F839002046CD
:1017C000FFF708FF002010BD70B5044694F83A00FA
:1017D000222847D1A068B0F5805F0CD1206950B9AC
:1017E0000025A66A20684068C0F308003080A06A1F
:1017F000801CA06215E0A56A0026A068B0F5805F95
:1018000003D0A06828B9206918B9206840682870FA
:1018100004E02068406800F07F002870A06A401C47
:10182000A062E08D401E80B2E085C8B92068C06823
:1018300020F020002168C8602068C06820F4807013
:101840002168C8602068406920F001002168486173
:10185000202084F83A002046FFF752FE002070BD99
:101860000020FCE70220FAE770B504462168096908
:1018700021F44051E2681143226811612269A16894
:101880001143626941EA02052168C96841F20C62AC
:10189000914329432268D1602168496921F440714C
:1018A000A2691143226851612D4A2168914202D1F7
:1018B000FFF716FA01E0FFF703FA00EBC00101EBB6
:1018C000001162689200B1FBF2F100EBC00202EB82
:1018D000001263689B00B2FBF3F26423B2FBF3F2E5
:1018E00002EBC20303EB0212A1EB8201322202EBF4
:1018F00001116422B1FBF2F101F0F00100EBC00232
:1019000002EB001263689B00B2FBF3F26423B2FBAC
:10191000F3F201EB021200EBC00101EB001163686E
:101920009B00B1FBF3F100EBC00303EB001366680F
:10193000B600B3FBF6F36426B3FBF6F303EBC30682
:1019400006EB0313A1EB8301322303EB01116423A4
:10195000B1FBF3F101F00F0111442268916070BDF9
:1019600000380140014691F83900212828D18868C3
:10197000B0F5805F0BD1086948B90A6A1088C0F3D6
:1019800008000B685860086A801C086205E00B6A52
:10199000581C086218780B685860C88C401E80B2CA
:1019A000C88458B90868C06820F080000B68D86007
:1019B0000868C06840F040000B68D860002070479D
:1019C0000220FCE72DE9F04104460D4617469846F3
:1019D000069E21E0701CF8B12EB1FEF7CDFFA0EB02
:1019E0000800B04218D92068C06820F4D07021687F
:1019F000C8602068406920F001002168486120200B
:101A000084F8390084F83A0000BF002084F83800D8
:101A100000BF0320BDE8F081206800682840A8428C
:101A200001D1012000E00020B842D3D00020F1E72E
:101A300010B50248FFF7FCFB10BD000010000020AD
:101A400000BFFEE71FB500224FF400411148FEF72A
:101A50008DFF4FF4FA60FEF7E5FD0122D1030D483A
:101A6000FEF784FF002000900190029003904FF455
:101A7000004000901120019000200290022003906D
:101A800069460448FEF7E2FD4FF4FA60FEF7CAFD2E
:101A90001FBD0000000C01402DE9F04F89B08146C8
:101AA0000F4692461E46129D4FF0000801AC072ECD
:101AB00001D0082E03DD002009B0BDE8F08F7F22A1
:101AC000202101A8FEF740FBFF2F13DD45F0880021
:101AD000304304F8010B2DB1102D03D0202D01D07F
:101AE000302D01D104F8019B380A04F8010B04F8E9
:101AF000017B0FE045F08000304304F8010B2DB16D
:101B0000102D03D0202D01D0302D01D104F8019BE0
:101B100004F8017B03E01AF8010B04F8010B301EF6
:101B2000A6F10101CEB2F6D101A8A4EB000841460E
:101B3000FEF70AFD834604F801BB4FEA1B2004F8B8
:101B4000010B08F102081FFA88F2022301A90248DA
:101B5000FFF7D7FC4046AFE7100000202DE9FE4F0D
:101B60008046894614461D46DDE90C764FF0000A92
:101B7000002001900290092F78D2DFE807F0770566
:101B800011284A78A8DEFD00E0B28DF80400012398
:101B900001AA494640460096FFF77EFF82464DE186
:101BA0004FF47F4104EA01000021000A40EA01608D
:101BB000C0B28DF80400E0B28DF80500022301AA3E
:101BC000494640460096FFF767FF824636E14FF4EC
:101BD0007F0104EA01000021000C40EA0140C0B28C
:101BE0008DF804004FF47F4104EA01000021000A4F
:101BF00040EA0160C0B28DF80500E0B28DF8060041
:101C0000032301AA494640460096FFF745FF824656
:101C100014E14FF07F4104EA01000021000E40EA88
:101C20000120C0B28DF804004FF47F0104EA0100E6
:101C30000021000C40EA0140C0B28DF805004FF4CD
:101C40007F4104EA01000021000A40EA0160C0B2BD
:101C50008DF80600E0B28DF80700042301AA49467A
:101C600040460096FFF718FF8246E7E0E5E0E8B25D
:101C70008DF804004FF07F4104EA01000021000EBE
:101C800040EA0120C0B28DF805004FF47F0104EA5C
:101C900001000021000C40EA0140C0B28DF80600AE
:101CA0004FF47F4104EA01000021000A40EA01608C
:101CB000C0B28DF80700E0B28DF80800052301AA34
:101CC000494640460096FFF7E7FE8246B6E04FF4ED
:101CD0007F402840000A8DF80400E8B28DF8050026
:101CE0004FF07F4104EA01000021000E40EA01208C
:101CF000C0B28DF806004FF47F0104EA0100002114
:101D0000000C40EA0140C0B28DF807004FF47F415B
:101D100004EA01000021000A40EA0160C0B28DF827
:101D20000800E0B28DF80900062301AA49464046A2
:101D30000096FFF7B1FE824680E04FF47F00284016
:101D4000000C8DF804004FF47F402840000A8DF805
:101D50000500E8B28DF806004FF07F4104EA01006B
:101D60000021000E40EA0120C0B28DF807004FF4B8
:101D70007F0104EA010000E01DE00021000C40EAC0
:101D80000140C0B28DF808004FF47F4104EA010021
:101D90000021000A40EA0160C0B28DF80900E0B2FB
:101DA0008DF80A00072301AA494640460096FFF72E
:101DB00073FE824642E04FF07F402840000E8DF8CF
:101DC00004004FF47F002840000C8DF805004FF40C
:101DD0007F402840000A8DF80600E8B28DF8070021
:101DE0004FF07F4104EA01000021000E40EA01208B
:101DF000C0B28DF808004FF47F0104EA0100002111
:101E0000000C40EA0140C0B28DF809004FF47F4158
:101E100004EA01000021000A40EA0160C0B28DF826
:101E20000A00E0B28DF80B00082301AA494640469B
:101E30000096FFF731FE824600E000BF00BF50462B
:101E4000BDE8FE8F02480068C0F302207047000022
:101E50000CED00E010B5002804DB0A07130E054A5C
:101E6000135406E00A07140E034A00F00F031B1F69
:101E7000D45410BD00E400E018ED00E002E008C812
:101E8000121F08C1002AFAD170477047002001E0F4
:101E900001C1121F002AFBD1704708B542F2D001E0
:101EA0004143009100BF00994A1E00920029FAD1D7
:101EB00008BD2DE9F04105460E462F684FF0010898
:101EC000002409E055F824003946FEF77BFA02D2D7
:101ED00055F82470A046641CB442F3DB08F10100FD
:101EE000BDE8F0812DE9F04105460E462F684FF020
:101EF0000108002409E055F824003946FEF758FA95
:101F000002D255F82470A046641CB442F3DB08F1F9
:101F10000100BDE8F08100002DE9F05F81468B46AD
:101F20009246012414E019F814206100491E19F8A2
:101F3000011042EA0120FEF7E3F90746064A074B83
:101F4000FEF76CF90546FEF717FA4AF8040B641C15
:101F50005C45E8DDBDE8F09F398E8AC59018143FD6
:101F6000ACB0FEF71BFDFFF7DCFBFFF737FBFFF71D
:101F700093FB00240025002004900390029000F0C1
:101F8000E5F8FFF75FFD10200221C2020023CDE932
:101F900000106B211846FFF7E1FD102002214FF6DB
:101FA000C0720023CDE9001052211846FFF7D6FD7C
:101FB0001020012138220023CDE9001051211846BC
:101FC000FFF7CCFD0A20FFF768FF702001210022F7
:101FD0001346CDE900103D211046FFF7BFFD7020EC
:101FE000012104220023CDE900103E211846FFF70D
:101FF000B5FD7020012100221346CDE90010072114
:102000001046FFF7ABFD1020012138220023CDE957
:10201000001051211846FFF7A1FD102002214FF6B4
:10202000C0720023CDE9001052211846FFF796FD3B
:102030001020012106220023CDE900100D211846B1
:10204000FFF78CFD102004214FF47C120023CDE912
:10205000001003211846FFF781FD102002214DF2E8
:102060000A720023CDE9001090211846FFF776FD93
:102070001020022148F6CD420023CDE900108E2128
:102080001846FFF76BFD4FF47A70FEF7CBFA58E075
:1020900041F28830FEF7C6FA002001210A460346C5
:1020A000CDE900100221FFF759FD0F210BA8FFF722
:1020B00027FB4FF47A70FEF7B5FA05AA06210BA8A4
:1020C000FFF72AFF062105A8FFF70CFF0490062161
:1020D00005A8FFF7EEFE03900498401E05A951F8ED
:1020E00020500398401E51F8204029462046FEF714
:1020F0008FF88046FEF715F90646124A124BFEF796
:1021000023F907D20120049988403F21814388B2F6
:10211000029001E0002002901020012108220023FB
:10212000CDE9001013211846FFF718FD10200221F9
:10213000CDE90010BDF80820002314211846FFF750
:102140000DFDA5E77B14AE47E17A843F1CB54FF443
:10215000FA60FEF767FA1020012140220023CDE942
:1021600000100C211846FFF7F9FC1CBD0000C1C08F
:1021700081C1400101C3C003800241C201C6C00643
:10218000800741C70005C1C581C4400401CCC00C13
:10219000800D41CD000FC1CF81CE400E000AC1CAD3
:1021A00081CB400B01C9C009800841C801D8C018C3
:1021B000801941D9001BC1DB81DA401A001EC1DE43
:1021C00081DF401F01DDC01D801C41DC0014C1D433
:1021D00081D5401501D7C017801641D601D2C01253
:1021E000801341D30011C1D181D0401001F0C03023
:1021F000803141F10033C1F381F240320036C1F643
:1022000081F7403701F5C035803441F4003CC1FC12
:1022100081FD403D01FFC03F803E41FE01FAC03AD2
:10222000803B41FB0039C1F981F840380028C1E802
:1022300081E9402901EBC02B802A41EA01EEC02E42
:10224000802F41EF002DC1ED81EC402C01E4C02432
:10225000802541E50027C1E781E640260022C1E252
:1022600081E3402301E1C021802041E001A0C06062
:10227000806141A10063C1A381A240620066C1A642
:1022800081A7406701A5C065806441A4006CC1AC12
:1022900081AD406D01AFC06F806E41AE01AAC06AD2
:1022A000806B41AB0069C1A981A840680078C1B8C2
:1022B00081B9407901BBC07B807A41BA01BEC07E42
:1022C000807F41BF007DC1BD81BC407C01B4C07432
:1022D000807541B50077C1B781B640760072C1B252
:1022E00081B3407301B1C071807041B00050C190A2
:1022F000819140510193C053805241920196C05642
:10230000805741970055C19581944054019CC05C11
:10231000805D419D005FC19F819E405E005AC19AD1
:10232000819B405B0199C059805841980188C04801
:1023300080494189004BC18B818A404A004EC18E41
:10234000818F404F018DC04D804C418C0044C18431
:10235000818540450187C047804641860182C04251
:10236000804341830041C1818180404000000000E2
:102370000000000001020304060708090000000035
:1023800001020304A4230008000000201000000044
:102390007C1E0008B4230008100000204004000048
:1023A0008C1E00080000000010000000010000006A
:0423B0000024F40011
:04000005080000ED02
:00000001FF
